{
  "_format": "hh-sol-artifact-1",
  "contractName": "TokenSwap",
  "sourceName": "contracts/TokenSwap.sol",
  "abi": [
    {
      "inputs": [
        {
          "internalType": "address",
          "name": "_token1",
          "type": "address"
        },
        {
          "internalType": "address",
          "name": "_owner1",
          "type": "address"
        },
        {
          "internalType": "uint256",
          "name": "_amount1",
          "type": "uint256"
        },
        {
          "internalType": "address",
          "name": "_token2",
          "type": "address"
        },
        {
          "internalType": "address",
          "name": "_owner2",
          "type": "address"
        },
        {
          "internalType": "uint256",
          "name": "_amount2",
          "type": "uint256"
        }
      ],
      "stateMutability": "nonpayable",
      "type": "constructor"
    },
    {
      "inputs": [],
      "name": "amount1",
      "outputs": [
        {
          "internalType": "uint256",
          "name": "",
          "type": "uint256"
        }
      ],
      "stateMutability": "view",
      "type": "function"
    },
    {
      "inputs": [],
      "name": "amount2",
      "outputs": [
        {
          "internalType": "uint256",
          "name": "",
          "type": "uint256"
        }
      ],
      "stateMutability": "view",
      "type": "function"
    },
    {
      "inputs": [],
      "name": "owner1",
      "outputs": [
        {
          "internalType": "address",
          "name": "",
          "type": "address"
        }
      ],
      "stateMutability": "view",
      "type": "function"
    },
    {
      "inputs": [],
      "name": "owner2",
      "outputs": [
        {
          "internalType": "address",
          "name": "",
          "type": "address"
        }
      ],
      "stateMutability": "view",
      "type": "function"
    },
    {
      "inputs": [],
      "name": "swap",
      "outputs": [],
      "stateMutability": "nonpayable",
      "type": "function"
    },
    {
      "inputs": [],
      "name": "token1",
      "outputs": [
        {
          "internalType": "contract IERC20",
          "name": "",
          "type": "address"
        }
      ],
      "stateMutability": "view",
      "type": "function"
    },
    {
      "inputs": [],
      "name": "token2",
      "outputs": [
        {
          "internalType": "contract IERC20",
          "name": "",
          "type": "address"
        }
      ],
      "stateMutability": "view",
      "type": "function"
    }
  ],
  "bytecode": "0x60806040523480156200001157600080fd5b5060405162000d0538038062000d05833981810160405281019062000037919062000182565b856000806101000a81548173ffffffffffffffffffffffffffffffffffffffff021916908373ffffffffffffffffffffffffffffffffffffffff16021790555084600160006101000a81548173ffffffffffffffffffffffffffffffffffffffff021916908373ffffffffffffffffffffffffffffffffffffffff1602179055508360028190555082600360006101000a81548173ffffffffffffffffffffffffffffffffffffffff021916908373ffffffffffffffffffffffffffffffffffffffff16021790555081600460006101000a81548173ffffffffffffffffffffffffffffffffffffffff021916908373ffffffffffffffffffffffffffffffffffffffff160217905550806005819055505050505050506200028a565b600081519050620001658162000256565b92915050565b6000815190506200017c8162000270565b92915050565b60008060008060008060c087890312156200019c57600080fd5b6000620001ac89828a0162000154565b9650506020620001bf89828a0162000154565b9550506040620001d289828a016200016b565b9450506060620001e589828a0162000154565b9350506080620001f889828a0162000154565b92505060a06200020b89828a016200016b565b9150509295509295509295565b600062000225826200022c565b9050919050565b600073ffffffffffffffffffffffffffffffffffffffff82169050919050565b6000819050919050565b620002618162000218565b81146200026d57600080fd5b50565b6200027b816200024c565b81146200028757600080fd5b50565b610a6b806200029a6000396000f3fe608060405234801561001057600080fd5b506004361061007d5760003560e01c8063736889141161005b57806373688914146100dc5780638119c065146100fa578063d21220a714610104578063f400fde4146101225761007d565b8063057bfcc71461008257806325be124e146100a057806352709725146100be575b600080fd5b61008a610140565b604051610097919061096f565b60405180910390f35b6100a8610146565b6040516100b591906108d4565b60405180910390f35b6100c661016c565b6040516100d39190610859565b60405180910390f35b6100e4610192565b6040516100f19190610859565b60405180910390f35b6101026101b8565b005b61010c6105ac565b60405161011991906108d4565b60405180910390f35b61012a6105d0565b604051610137919061096f565b60405180910390f35b60055481565b600360009054906101000a900473ffffffffffffffffffffffffffffffffffffffff1681565b600460009054906101000a900473ffffffffffffffffffffffffffffffffffffffff1681565b600160009054906101000a900473ffffffffffffffffffffffffffffffffffffffff1681565b600160009054906101000a900473ffffffffffffffffffffffffffffffffffffffff1673ffffffffffffffffffffffffffffffffffffffff163373ffffffffffffffffffffffffffffffffffffffff1614806102615750600460009054906101000a900473ffffffffffffffffffffffffffffffffffffffff1673ffffffffffffffffffffffffffffffffffffffff163373ffffffffffffffffffffffffffffffffffffffff16145b6102a0576040517f08c379a00000000000000000000000000000000000000000000000000000000081526004016102979061094f565b60405180910390fd5b60025460008054906101000a900473ffffffffffffffffffffffffffffffffffffffff1673ffffffffffffffffffffffffffffffffffffffff1663dd62ed3e600160009054906101000a900473ffffffffffffffffffffffffffffffffffffffff16306040518363ffffffff1660e01b8152600401610320929190610874565b60206040518083038186803b15801561033857600080fd5b505afa15801561034c573d6000803e3d6000fd5b505050506040513d601f19601f820116820180604052508101906103709190610703565b10156103b1576040517f08c379a00000000000000000000000000000000000000000000000000000000081526004016103a89061092f565b60405180910390fd5b600554600360009054906101000a900473ffffffffffffffffffffffffffffffffffffffff1673ffffffffffffffffffffffffffffffffffffffff1663dd62ed3e600460009054906101000a900473ffffffffffffffffffffffffffffffffffffffff16306040518363ffffffff1660e01b8152600401610433929190610874565b60206040518083038186803b15801561044b57600080fd5b505afa15801561045f573d6000803e3d6000fd5b505050506040513d601f19601f820116820180604052508101906104839190610703565b10156104c4576040517f08c379a00000000000000000000000000000000000000000000000000000000081526004016104bb906108ef565b60405180910390fd5b61053660008054906101000a900473ffffffffffffffffffffffffffffffffffffffff16600160009054906101000a900473ffffffffffffffffffffffffffffffffffffffff16600460009054906101000a900473ffffffffffffffffffffffffffffffffffffffff166002546105d6565b6105aa600360009054906101000a900473ffffffffffffffffffffffffffffffffffffffff16600460009054906101000a900473ffffffffffffffffffffffffffffffffffffffff16600160009054906101000a900473ffffffffffffffffffffffffffffffffffffffff166005546105d6565b565b60008054906101000a900473ffffffffffffffffffffffffffffffffffffffff1681565b60025481565b60008473ffffffffffffffffffffffffffffffffffffffff166323b872dd8585856040518463ffffffff1660e01b81526004016106159392919061089d565b602060405180830381600087803b15801561062f57600080fd5b505af1158015610643573d6000803e3d6000fd5b505050506040513d601f19601f8201168201806040525081019061066791906106da565b9050806106a9576040517f08c379a00000000000000000000000000000000000000000000000000000000081526004016106a09061090f565b60405180910390fd5b5050505050565b6000815190506106bf81610a07565b92915050565b6000815190506106d481610a1e565b92915050565b6000602082840312156106ec57600080fd5b60006106fa848285016106b0565b91505092915050565b60006020828403121561071557600080fd5b6000610723848285016106c5565b91505092915050565b6107358161099b565b82525050565b610744816109e3565b82525050565b600061075760198361098a565b91507f546f6b656e203220616c6c6f77616e636520746f6f206c6f77000000000000006000830152602082019050919050565b600061079760158361098a565b91507f546f6b656e207472616e73666572206661696c656400000000000000000000006000830152602082019050919050565b60006107d760198361098a565b91507f546f6b656e203120616c6c6f77616e636520746f6f206c6f77000000000000006000830152602082019050919050565b6000610817600e8361098a565b91507f4e6f7420617574686f72697a65640000000000000000000000000000000000006000830152602082019050919050565b610853816109d9565b82525050565b600060208201905061086e600083018461072c565b92915050565b6000604082019050610889600083018561072c565b610896602083018461072c565b9392505050565b60006060820190506108b2600083018661072c565b6108bf602083018561072c565b6108cc604083018461084a565b949350505050565b60006020820190506108e9600083018461073b565b92915050565b600060208201905081810360008301526109088161074a565b9050919050565b600060208201905081810360008301526109288161078a565b9050919050565b60006020820190508181036000830152610948816107ca565b9050919050565b600060208201905081810360008301526109688161080a565b9050919050565b6000602082019050610984600083018461084a565b92915050565b600082825260208201905092915050565b60006109a6826109b9565b9050919050565b60008115159050919050565b600073ffffffffffffffffffffffffffffffffffffffff82169050919050565b6000819050919050565b60006109ee826109f5565b9050919050565b6000610a00826109b9565b9050919050565b610a10816109ad565b8114610a1b57600080fd5b50565b610a27816109d9565b8114610a3257600080fd5b5056fea264697066735822122096aa7cbff58667ea5733771f24f7bbd717403c83d650c15c493773107f5dd07864736f6c63430008000033",
  "linkReferences": {},
  "deployedLinkReferences": {}
}